:1000000012C02CC02BC0ECC929C028C015C926C0FD
:1000100025C024C023C022C021C020C01FC01EC0D4
:100020001DC01CC01BC011241FBECFE5D4E0DEBF25
:10003000CDBF11E0A0E6B0E0E0EDFCE102C005902C
:100040000D92AA37B107D9F721E0AAE7B1E001C0C4
:100050001D92AE39B207E1F76BD638CED1CF82BB55
:1000600088B38C7F816088BB8FE99FE00197F1F7AF
:1000700000C0000088B38C7F88BB8FE99FE00197A8
:10008000F1F700C00000089582BB88B3836088BB8D
:100090008FE99FE00197F1F700C0000088B38C7FE3
:1000A00088BB8FE99FE00197F1F700C00000089539
:1000B0001F93CF93DF93EC018881882389F0162F5B
:1000C0002196E2DF112349F02FEF8DE591E02150D9
:1000D00080409040E1F700C0000089918111F1CF8C
:1000E000DF91CF911F9108950F931F93CF93DF93CB
:1000F000813041F5B4DF8CE0B2DF1092860180E8F8
:10010000AEDF60E080E790E0D3DF8091870181116E
:1001100003C082E791E002C086E791E060E0C8DFBB
:1001200080EC9DDF60E084E890E0C2DF8091880190
:10013000811103C082E791E002C086E791E060E0B0
:10014000B7DFACC08230A9F58CE089DF80918601F1
:1001500081110BC081E083DF80EC81DF60E084EA05
:1001600090E0A6DF81E08093860180E878DF20912F
:10017000850190918401809166001F922F931F92B8
:100180009F931F928F9384EB90E09F938F9389E8C6
:1001900091E09F938F93ACDA60E089E891E088DF8B
:1001A0008DB79EB70A960FB6F8949EBF0FBE8DBF4F
:1001B00075C08330D1F51092860180E850DF08E6E3
:1001C00010E0F80181811F928F9380811F928F939D
:1001D0008BEC90E09F938F93C9E8D1E0DF93CF93AE
:1001E00087DA60E0CE0164DF80EC39DFF8018381DB
:1001F0001F928F9382811F928F9380EE90E09F9346
:100200008F93DF93CF9374DA60E0CE0151DF8BE8F8
:1002100026DF8BE880939901EDB7FEB770960FB695
:10022000F894FEBF0FBEEDBF39C08430B9F580E849
:1002300016DF08E610E0F80185811F928F93848114
:100240001F928F9385EF90E09F938F93C9E8D1E041
:10025000DF93CF934DDA60E0CE012ADF80ECFFDE42
:10026000F80187811F928F9386811F928F938AE076
:1002700091E09F938F93DF93CF933ADA60E0CE01C2
:1002800017DF8BE8ECDE8BE880939901EDB7FEB7C2
:1002900070960FB6F894FEBF0FBEEDBFDF91CF9101
:1002A0001F910F9108952F923F924F925F926F92FC
:1002B0007F928F929F92AF92BF92CF92DF92EF92F6
:1002C000FF920F931F93CF93DF93CDB7DEB729979C
:1002D0000FB6F894DEBF0FBECDBF9C838B83462E36
:1002E0004D83FC0101900020E9F73197AE2EA81A4A
:1002F0006894EE24E1F8F12C6894222423F8312C40
:100300000F2EF3E0BF2EF02D512C0F2EFAE76F2E9B
:10031000F1E07F2EF02D2BE32E8337E13F83670141
:10032000C1010E2C02C0880F991F0A94E2F7809534
:1003300088BB8FEC97E00197F1F700C000008701C0
:100340000F551F4FD701AB56BF4F4D01B9825A828F
:10035000E981FA81F987E8873A82298228853985F7
:10036000D8014C9183B390E0088402C0959587959D
:100370000A94E2F780FD25C02885F3012083E182FD
:1003800040937C014110A3C4403309F0A0C4809184
:100390006700823008F49BC480918301882309F4AC
:1003A00096C405B402FC93C484EF91E0909381015C
:1003B000809380011092820114BC85B5846085BD54
:1003C00086C480917C01882309F481C4D3014C91B7
:1003D00050E02417350709F07AC411962C9130E0CB
:1003E000C216D30609F073C44420D1F08A3209F44E
:1003F00094C0833209F491C0BD81AB1688F43324D4
:1004000033943A0CEB81FC81EA0DF11D8083EB8182
:10041000FC81E30DF11D10828AE236DEA32C88C038
:10042000803309F07AC08091830181113BC0109222
:100430007C0180916700823009F5E1E0E09383015F
:100440008EB58B7F8EBD80EC0ADE60E08FE191E09F
:100450002FDE10928501109284011092660084E8CC
:10046000FEDD60E080E391E023DE8EE0F8DD84E8ED
:100470008093990180919901F2DD5AC0833008F48C
:1004800013C18EE0ECDDF1E0F093830180917C01FB
:1004900021E090916700933008F420E08A3209F05F
:1004A00029C462C0809182018823B9F180916700DC
:1004B0008230E9F410927F0110927E011092810146
:1004C0001092800185B58B7F85BD109283018CE0F1
:1004D000C6DD80ECC4DD60E084EA90E0E9DD82E026
:1004E00003DE1DBC1CBC8EB584608EBD21C0833074
:1004F00008F4DAC010927F0110927E0110928101FF
:100500001092800185B58B7F85BD109283018CE0B0
:10051000A6DD80916700E8DD0BC010927F0110928C
:100520007E01109281011092800185B58B7F85BD7F
:1005300090917C018091670021E0833008F420E0F5
:100540009A3209F057C09091830191110DC0823009
:1005500020F424E02093670003C08150809367005B
:1005600080916700C1DDB1C3809199018150809372
:100570009901211116C080919901863821F080914E
:100580009901893831F480919901815080939901C2
:100590002DC080919901843848F58BE880939901AA
:1005A00025C0213019F5809199018A3821F43FEC5A
:1005B000309399011BC0809199018D3831F480915D
:1005C000990181508093990111C0809199018A3CD1
:1005D00021F45FE85093990109C0809199018D3C05
:1005E00029F480919901815080939901809199011A
:1005F00036DD6BC3933209F057C09091830191119E
:100600000DC0843020F081E08093670003C08F5FCD
:10061000809367008091670067DD57C380919901DF
:100620008F5F80939901211116C0809199018638BE
:1006300021F080919901893831F4809199018F5F7F
:10064000809399012DC0809199018C3848F184E8FC
:100650008093990125C0213019F5809199018D3839
:1006600031F4809199018F5F8093990119C0809135
:100670009901803921F48BEC8093990111C080910C
:1006800099018D3C31F4809199018F5F809399019C
:1006900007C080919901803D19F48BE880939901FE
:1006A00080919901DCDC11C380918301882309F4D6
:1006B0000CC380916700823009F010C130907C013A
:1006C000332009F402C3832DDFDC809199018F5F11
:1006D0008093990180ED830D909199019538C1F433
:1006E00090916600880F282F220F220F820FADEC09
:1006F0009A9F212D1124269526952695220F322F7B
:10070000330F330F230F921B890F809366008BC02A
:10071000909199019638C1F490916600BDEC9B9F31
:10072000912D1124969596959695990F292F220F24
:10073000220F920F890F8093660087E880939901BA
:10074000809199018CDC6FC0909199019838C1F427
:1007500090918401880F282F220F220F820FEDEC39
:100760009E9F212D1124269526952695220F322F06
:10077000330F330F230F921B890F8093840153C0D3
:10078000909199019938C1F490918401FDEC9F9F5B
:10079000912D1124969596959695990F292F220FB4
:1007A000220F920F890F809384018AE88093990128
:1007B0008091990154DC37C0909199019B38C1F424
:1007C00090918501880F282F220F220F820F3DEC78
:1007D000939F212D1124269526952695220F322FA1
:1007E000330F330F230F921B890F809385011BC09A
:1007F000909199019C38B9F4909185015DEC959F99
:10080000912D1124969596959695990F292F220F43
:10081000220F920F890F8093850184E880939901BC
:10082000809199011CDC80916600883178F08F817D
:100830008093660084E813DC82E326DC83E324DC17
:10084000809199010CDC8885998528C0809184016C
:100850008C3378F09E819093840187E800DC85E3F7
:1008600013DC89E311DC80919901F9DB8885998596
:1008700015C0809185018C3378F0AE81A0938501FD
:100880008AE8EDDB85E300DC89E3FEDB80919901FA
:10089000E6DB8885998502C088859985E199FECF38
:1008A000998788876091660080E090E0C7D9888545
:1008B0009985E199FECF998788876091840181E0CD
:1008C00090E0BCD988859985E199FECF9987888782
:1008D0006091850182E090E0B1D9F7C1833008F4DE
:1008E000F4C120907C01222009F4EFC1822DCCDBE1
:1008F000809199018F5F80939901809167000F2EFD
:10090000FDEF3F2EF02D380E809199018C3801F5C6
:10091000E32DF0E0EE0FFF1FEE0FFF1FE859FF4F32
:10092000822D880F8056282F220F220F280F8081BA
:10093000BDEC8B9F912D1124969596959695990FC8
:10094000392F330F330F930F891B820F8083FAC027
:10095000809199018D3801F5E32DF0E0EE0FFF1F36
:10096000EE0FFF1FE859FF4F20ED220D80813DEC77
:10097000839F812D1124869586958695880F982FC3
:10098000990F990F890F820F80838EE880939901C8
:100990008091990164DBD6C0809199018F3801F56F
:1009A000E32DF0E0EE0FFF1FEE0FFF1FE859FF4FA2
:1009B000822D880F8056282F220F220F280F818129
:1009C0005DEC859F912D1124969596959695990F9E
:1009D000392F330F330F930F891B820F8183B2C0DE
:1009E00080919901803901F5E32DF0E0EE0FFF1FB2
:1009F000EE0FFF1FE859FF4F20ED220D81819DEC86
:100A0000899F812D1124869586958695880F982F2C
:100A1000990F990F890F820F81838BEC8093990135
:100A2000809199011CDB8EC0809199018C3C01F56D
:100A3000E32DF0E0EE0FFF1FEE0FFF1FE859FF4F11
:100A4000822D880F8056282F220F220F280F828197
:100A5000ADEC8A9F912D1124969596959695990FB8
:100A6000392F330F330F930F891B820F82836AC094
:100A7000809199018D3C01F5E32DF0E0EE0FFF1F11
:100A8000EE0FFF1FE859FF4F20ED220D8281BDECD4
:100A90008B9F812D1124869586958695880F982F9A
:100AA000990F990F890F820F82838EEC80939901A1
:100AB00080919901D4DA46C0809199018F3C01F56B
:100AC000E32DF0E0EE0FFF1FEE0FFF1FE859FF4F81
:100AD000822D880F8056282F220F220F280F838106
:100AE0003DEC839F912D1124969596959695990F9F
:100AF000392F330F330F930F891B820F838322C04B
:100B000080919901803DF1F4E32DF0E0EE0FFF1F9D
:100B1000EE0FFF1FE859FF4F820D93815DEC959F0B
:100B2000912D1124969596959695990F292F220F20
:100B3000220F920F890F83838BE880939901809114
:100B400099018DDA232C312CF101EE0FFF1FEE0FEE
:100B5000FF1FE859FF4F8081883198F0F101EE0FB7
:100B6000FF1FEE0FFF1FE859FF4F87E180838BE8DF
:100B700076DA82E389DA83E387DA809199016FDAA2
:100B80001CC0F101EE0FFF1FEE0FFF1FE859FF4FD2
:100B900081818C3390F0F101EE0FFF1FEE0FFF1FEC
:100BA000E859FF4F9BE391838EE859DA85E36CDACD
:100BB00089E36ADA8091990152DAF101EE0FFF1FA1
:100BC000EE0FFF1FE859FF4F8281883198F0F10145
:100BD000EE0FFF1FEE0FFF1FE859FF4FA7E1A283A3
:100BE0008BEC3DDA82E350DA83E34EDA80919901AF
:100BF00036DA1CC0F101EE0FFF1FEE0FFF1FE859A0
:100C0000FF4F83818C3390F0F101EE0FFF1FEE0F49
:100C1000FF1FE859FF4FBBE3B3838EEC20DA85E377
:100C200033DA89E331DA8091990119DAF101EE0FB3
:100C3000FF1FEE0FFF1FE859FF4F9081828198132D
:100C40001AC0F101EE0FFF1FEE0FFF1FE859FF4F13
:100C500081819381891312C0F101EE0FFF1FEE0F06
:100C6000FF1FE859FF4F8F5F8383809167003CDA55
:100C70008885998505C08885998502C0888599856C
:100C8000E199FECF99878887C101880F991F880F46
:100C9000991FBC016D5F7F4F42E050E088599F4F24
:100CA000BED788859985E199FECF99878887C1014C
:100CB000880F991F880F991F0296BC016D5F7F4FA7
:100CC00042E050E088599F4FAAD710927C01035010
:100CD0001109E885F9853197F987E887801691062B
:100CE00009F03CCB29803A80F1E0EF1AF10808F0D6
:100CF00016CB04C0833209F0D7CC90CC80E0299683
:100D00000FB6F894DEBF0FBECDBFDF91CF911F911C
:100D10000F91FF90EF90DF90CF90BF90AF909F909A
:100D20008F907F906F905F904F903F902F9008959D
:100D30008FEF81BB8FE387BB80EF84BB8FE085BBE8
:100D4000379880E888B988E38AD98CE088D981E02F
:100D500086D980E884D9E199FECF80E090E057D72A
:100D6000D82FE199FECF81E090E051D7C82FE199CB
:100D7000FECF82E090E04BD7DF3F11F0D0936600CA
:100D8000CF3F11F0C09384018F3F09F440C280939C
:100D900085013DC2E199FECFC70139D7A82EE1995F
:100DA000FECFC701019633D72FEFA21619F0F80135
:100DB0003197A0828F3F11F0F8018083BA940E5FC3
:100DC0001F4FF2E0EF0EF11CB110E4CF24E0C20E91
:100DD000D11C2496C615D70521F07E018601B92CB9
:100DE000D9CFE199FECF8BE090E011D78F3F71F022
:100DF0008093870145B320E130E0B90102C0660F5E
:100E0000771F8A95E2F7CB01842B85BBE199FECF52
:100E10008CE090E0FCD68F3F71F08093880145B361
:100E200020E130E0F90102C0EE0FFF1F8A95E2F7E2
:100E3000CF01842B85BBE0E7F0E0158611A288E0A6
:100E40008EBD89B7806189BF81E19AE79BBD8ABD6C
:100E50008EB584608EBD85B5886085BD89B7806894
:100E600089BF8DE783BD789480E4F9D88FE10CD9F0
:100E700080E00AD980E008D980E006D980E004D972
:100E800080E002D980E000D980E0FED888E4E7D88D
:100E90008FE1FAD881E0F8D881E0F6D881E0F4D883
:100EA00081E0F2D881E0F0D881E0EED881E0ECD8A2
:100EB00081E0EAD881E0E8D881E0E6D881E0E4D8B2
:100EC00081E0E2D881E0E0D881E0DED881E0DCD8C2
:100ED00081E0DAD881E0D8D881E0D6D881E0D4D8D2
:100EE00081E0D2D881E0D0D881E0CED88FE1CCD8D3
:100EF00080E0CAD880E0C8D880E0C6D880E0C4D8F6
:100F000080E0C2D880E0C0D880E0BED88FE1BCD8F5
:100F100080E1BAD880E1B8D880E1B6D880E1B4D811
:100F200080E1B2D880E1B0D880E1AED88FE1ACD812
:100F300080E1AAD880E1A8D880E1A6D880E1A4D831
:100F400080E1A2D880E1A0D880E19ED880E19CD841
:100F50008FE19AD880E198D880E196D880E194D842
:100F600080E192D880E190D880E18ED880E18CD861
:100F700080E875D8D1E06894FF24F1F801E01FEC17
:100F80000F2EFDE0EF2EF02D5DC0D13099F480E002
:100F90007BD8FFEF2DE561E0F15020406040E1F7A4
:100FA00000C00000C430A1F4602F89E391E080D834
:100FB000CE2DEBCF7FEF84E491E0715080409040E4
:100FC000E1F700C00000812F8C1B49D884E05CD879
:100FD000CF5FC131D0F2D130F9F48FE840D8802F03
:100FE00053D8EFEFF4E421E0E150F0402040E1F786
:100FF00000C00000812F33D882E046D86FEF74E440
:1010000081E0615070408040E1F700C00000812F16
:1010100026D883E039D814C080EC21D885E034D8B4
:101020009FEFE4E4F1E09150E040F040E1F700C0D0
:10103000000080E814D887E027D822E02F1520F0A0
:10104000F394DF5FC02FA1CF80E809D86FEF74E37E
:101050008CE0615070408040E1F700C0000011E07A
:101060006894FF24F1F8DD24D3946894EE24E1F829
:1010700000ED7BC0CF5FDF5F113041F5D03161F40F
:101080008E2D02D89FEFE4E4F1E09150E040F04073
:10109000E1F700C0000030C0D13061F486E0F4D741
:1010A0002FEF6DE571E0215060407040E1F700C026
:1010B0000000E0CF80E2E8D78FEF9DE5E1E08150CE
:1010C0009040E040E1F700C0000013C0802F8C1B6F
:1010D000C6D7FFEF24E461E0F15020406040E1F723
:1010E00000C00000D03119F486E0CED705C080E200
:1010F000CBD7C13108F4BECF1130F9F48FE8AFD7A8
:1011000080E2C2D77FEF84E491E07150804090404C
:10111000E1F700C000008FECA2D784E0B5D7EFEF75
:10112000F4E421E0E150F0402040E1F700C000008D
:101130008FEC95D780E2A8D716C080EC90D780E2DC
:10114000A3D76FEF74E481E0615070408040E1F715
:1011500000C0000080E883D780E296D780E87FD780
:1011600092E09F1528F0F3941F5FDD2DCE2D84CFE4
:1011700061E070E085E090E064D1EC0160E082E441
:1011800091E096D780917D0181113AC0182F44E0FB
:1011900061E0CE0188D8FE0101900020E9F7319787
:1011A000EC1BFD0B349708F444C06EE471E0CE01F3
:1011B00096D2892B89F080EC52D760E083E591E0EC
:1011C00077D718828BE84BD760E086EC90E070D739
:1011D0008BE845D7812F10C080EC41D760E082E6D4
:1011E00091E066D7EFEFF9E628E1E150F0402040CA
:1011F000E1F700C0000081E080937D01882339F28F
:1012000081E072D740E060E0CE014DD8FBCF0F2ED9
:10121000F9E6CF2EF0E0DF2EF02DC3E0D0E00F2E68
:10122000FBE06F2EF0E07F2EF02D6894992491F86A
:10123000D4CD10927D01ABCF1F920F920FB60F92BB
:101240001124BF92CF92DF92EF92FF920F931F93E0
:101250002F933F934F935F936F937F938F939F93BE
:10126000AF93BF93CF93DF93EF93FF93809185016B
:101270008F5F80938501809185018C3308F484C051
:1012800010928501809184018F5F80938401809109
:1012900084018C3308F478C0109284018091660038
:1012A0008F5F8093660080916600883108F46CC07F
:1012B0001092660069C09801FE0180916600DE010F
:1012C00013979C9198131EC08091840111969C9154
:1012D000981318C0D801A957BE4F8C91811112C024
:1012E000FD01B08235B3C60102C0880F991F2A954F
:1012F000E2F7832B85BBE199FECF6B2DC7019ED40E
:101300004B2D27C080916600DF0111979C919813A7
:1013100020C080918401908198131BC0F901E95786
:10132000FE4F80818130A9F4F901E957FE4F108208
:1013300095B3A60102C0440F551F2A95E2F7842FEA
:101340008095892385BBE199FECF60E0C70176D403
:101350004B2D0F5F1F4F5FEFE51AF50A2496023001
:10136000110509F0A8CF80917D01882339F044232D
:1013700029F080916700813009F4B6D6809167002A
:101380008230A1F4B1D612C00F2EFBE0EF2EF0E0B8
:10139000FF2EF02DCBE6D0E000E010E040E06894B6
:1013A000CC24C4F8D12CBB24B39485CFFF91EF910A
:1013B000DF91CF91BF91AF919F918F917F916F916D
:1013C0005F914F913F912F911F910F91FF90EF905F
:1013D000DF90CF90BF900F900FBE0F901F90189589
:1013E0001F920F920FB60F9211242F933F938F935A
:1013F0009F9380917E0190917F01019690937F0150
:1014000080937E0120917E0130917F018091800147
:10141000909181012817390758F0809180019091AF
:10142000810190937F0180937E0181E0809382010E
:101430009F918F913F912F910F900FBE0F901F9012
:1014400018950F931F93CF93DF93869F8001879FFB
:10145000100D969F100D1124C8010DD0EC010097BE
:1014600021F0A80160E070E033D1CE01DF91CF918F
:101470001F910F910895CF93DF938230910510F45F
:1014800082E090E0E0919C01F0919D0120E030E04D
:10149000C0E0D0E0309711F14081518148175907E1
:1014A000C0F04817590761F482819381209719F0A1
:1014B0009B838A832BC090939D0180939C0126C0BF
:1014C0002115310519F04217530718F49A01BE018E
:1014D000DF01EF010280F381E02DDCCF2115310522
:1014E00009F1281B390B2430310590F412968D91A7
:1014F0009C9113976115710521F0FB019383828301
:1015000004C090939D0180939C01FD01329644C0DC
:10151000FD01E20FF31F81939193225031092D9326
:101520003C933AC020919A0130919B01232B41F4C6
:10153000209162003091630030939B0120939A01C7
:1015400020916000309161002115310541F42DB7E3
:101550003EB74091640050916500241B350BE0912B
:101560009A01F0919B01E217F307A0F42E1B3F0BA9
:101570002817390778F0AC014E5F5F4F2417350705
:1015800048F04E0F5F1F50939B0140939A01819347
:10159000919302C0E0E0F0E0CF01DF91CF91089598
:1015A0000F931F93CF93DF93009709F48CC0FC0136
:1015B00032971382128200919C0110919D010115B6
:1015C000110581F420813181820F931F20919A01AE
:1015D00030919B012817390779F5F0939B01E0932F
:1015E0009A0171C0D80140E050E0AE17BF0750F437
:1015F00012962D913C911397AD012115310509F1FA
:10160000D901F3CF9D01DA01338322836081718197
:10161000860F971F8217930769F4EC01288139819F
:10162000260F371F2E5F3F4F318320838A819B8196
:1016300093838283452B29F4F0939D01E0939C01D1
:1016400042C01396FC93EE931297ED014991599184
:101650009E01240F351FE217F30771F480819181F9
:10166000840F951F029611969C938E93828193818D
:1016700013969C938E931297E0E0F0E0D8011296B7
:101680008D919C911397009719F0F8018C01F6CF7A
:101690008D919C9198012E5F3F4F820F931F209157
:1016A0009A0130919B012817390769F4309729F482
:1016B00010929D0110929C0102C01382128210931D
:1016C0009B0100939A01DF91CF911F910F91089593
:1016D000DC0101C06D9341505040E0F70895FB01DB
:1016E000DC018D91019080190110D9F3990B0895B7
:1016F000AEE0B0E0EDE7FBE0C0C20D891E8986E0F8
:101700008C831A8309838FEF9FE79E838D83AE01BD
:10171000475E5F4F6F89788DCE01019609D02F818A
:101720003885F801E20FF31F10822E96E4E0C1C263
:10173000ACE0B0E0EDE9FBE092C27C016B018A0114
:10174000FC0117821682838181FFB0C1CE01019610
:101750004C01F7019381F60193FD859193FF8191EF
:101760006F01882309F49EC1853239F493FD859178
:1017700093FF81916F01853221F4B70190E0B1D1DF
:10178000E8CF512C312C20E02032A0F48B3269F0CC
:1017900030F4803259F0833269F420612CC08D32EC
:1017A00039F0803339F4216026C02260246023C0E0
:1017B000286021C027FD27C030ED380F3A3078F47B
:1017C00026FF06C0FAE05F9E300D1124532E13C091
:1017D0008AE0389E300D1124332E20620CC08E32E8
:1017E00021F426FD5FC1206406C08C3611F4206808
:1017F00002C0883641F4F60193FD859193FF8191F3
:101800006F018111C1CF982F9F7D9554933028F49B
:101810000C5F1F4FFFE3F9830DC0833631F0833730
:1018200071F0833509F057C021C0F80180818983A8
:101830000E5F1F4F44244394512C540114C03801AF
:10184000F2E06F0E711CF801A080B18026FF03C08A
:10185000652D70E002C06FEF7FEFC5012C8736D198
:101860002C0183012C852F77222E16C03801F2E03F
:101870006F0E711CF801A080B18026FF03C0652D9A
:1018800070E002C06FEF7FEFC5012C8714D12C01EF
:101890002C852068222E830123FC19C0832D90E023
:1018A00048165906A0F4B70180E290E01AD13A94A4
:1018B000F5CFF50127FC859127FE81915F01B701E6
:1018C00090E00FD131103A94F1E04F1A51084114D1
:1018D000510479F7DEC0843611F0893631F5F8010C
:1018E00027FF07C060817181828193810C5F1F4F48
:1018F00008C060817181072E000C880B990B0E5F68
:101900001F4F2F76722E97FF09C090958095709586
:1019100061957F4F8F4F9F4F2068722E2AE030E0F5
:10192000A40117D1A82EA81843C0853729F42F7E0B
:10193000B22E2AE030E025C0F22FF97FBF2E8F367D
:10194000C1F018F4883579F0ADC0803719F08837C8
:1019500021F0A8C02F2F2061B22EB4FE0DC08B2D18
:101960008460B82E09C024FF0AC09F2F9660B92E4C
:1019700006C028E030E005C020E130E002C020E1F0
:1019800032E0F801B7FE07C06081718182819381E6
:101990000C5F1F4F06C06081718180E090E00E5F98
:1019A0001F4FA401D6D0A82EA818FB2DFF777F2E9D
:1019B00076FE0BC0372D3E7FA51450F474FE0AC08E
:1019C00072FC08C0372D3E7E05C0BA2C372D03C0EF
:1019D000BA2C01C0B52C34FF0DC0FE01EA0DF11D7B
:1019E0008081803311F4397E09C032FF06C0B39480
:1019F000B39404C0832F867809F0B39433FD12C0EA
:101A000030FF06C05A2CB31418F4530C5B18B32CD7
:101A1000B31460F4B70180E290E03C8762D0B394E5
:101A20003C85F6CFB31410F43B1801C0312C34FFC1
:101A300011C0B70180E390E03C8753D03C8532FF72
:101A400016C031FD03C088E790E002C088E590E051
:101A5000B7010CC0832F867851F031FF02C08BE2B2
:101A600001C080E237FD8DE2B70190E03AD0A514C5
:101A700030F4B70180E390E034D05A94F8CFAA94C0
:101A8000F401EA0DF11D8081B70190E02AD0A11088
:101A9000F6CF332009F45DCEB70180E290E021D08B
:101AA0003A94F7CFF7018681978102C08FEF9FEFBD
:101AB0002C96E2E1F0C0FC010590615070400110ED
:101AC000D8F7809590958E0F9F1F0895FC01615067
:101AD000704001900110D8F7809590958E0F9F1F50
:101AE00008950F931F93CF93DF93FB01238121FD73
:101AF00003C08FEF9FEF28C022FF16C04681578199
:101B0000248135814217530744F4A081B1819D019E
:101B10002F5F3F4F318320838C93268137812F5F46
:101B20003F4F3783268310C0EB01092F182F008405
:101B3000F185E02D0995892BE1F68E819F81019633
:101B40009F838E83812F902FDF91CF911F910F91D3
:101B50000895FA01AA27283051F1203181F1E89443
:101B60006F936E7F6E5F7F4F8F4F9F4FAF4FB1E090
:101B70003ED0B4E03CD0670F781F891F9A1FA11D8B
:101B8000680F791F8A1F911DA11D6A0F711D811D8C
:101B9000911DA11D20D009F468943F912AE0269F51
:101BA00011243019305D3193DEF6CF010895462FB0
:101BB0004770405D4193B3E00FD0C9F7F6CF462F91
:101BC0004F70405D4A3318F0495D31FD40524193FA
:101BD00002D0A9F7EACFB4E0A695979587957795B7
:101BE0006795BA95C9F700976105710508959B013E
:101BF000AC010A2E06945795479537952795BA95C7
:101C0000C9F7620F731F841F951FA01D0895E199E6
:101C1000FECF9FBB8EBBE09A99278DB30895DC0160
:101C2000A40FB51F4150504040F0CB01840F951FC9
:101C30002E9105D041505040D8F70895262FE199B4
:101C4000FECF9FBB8EBBE09A01970DB2021631F01A
:101C50002DBB0FB6F894E29AE19A0FBE08952F9229
:101C60003F924F925F926F927F928F929F92AF922C
:101C7000BF92CF92DF92EF92FF920F931F93CF9379
:101C8000DF93CDB7DEB7CA1BDB0B0FB6F894DEBF10
:101C90000FBECDBF09942A88398848885F846E8436
:101CA0007D848C849B84AA84B984C884DF80EE8080
:101CB000FD800C811B81AA81B981CE0FD11D0FB689
:101CC000F894DEBF0FBECDBFED010895F894FFCFAD
:101CD00000009E0120000F010F010F020F020F03F1
:101CE00052656C617920313A2020202020000000CC
:101CF0000000000052656C617920323A20202020DB
:101D0000200000000000000031323334353637380F
:101D1000392A3023526573657420285072657373B5
:101D20002030290020202020253032643A2530320E
:101D3000643A253032642020202000523120204F88
:101D40004E3A20202020253032643A25303264007B
:101D50005231204F46463A20202020253032643A26
:101D60002530326400523220204F4E3A202020206D
:101D7000253032643A25303264005232204F4646D4
:101D80003A20202020253032643A25303264005237
:101D9000657475726E2028486F6C642030292000AD
:101DA00030303A30303A303000214C6F6164696E27
:101DB0006700456E7465722050494E3A20003132FA
:101DC000333400496E636F72726563742050494EFC
:101DD0002E00416363657373204772616E7465649E
:0A1DE00021004F4646004F4E000060
:00000001FF
